:020000040000fa
:080000000002040000000000f2
:020000040000fa
:040008009e03000053
:020000040000fa
:04000c009e0300004f
:020000040000fa
:040010009e0300004b
:020000040000fa
:040014009e03000047
:020000040000fa
:040018009e03000043
:020000040000fa
:04001c009e0300003f
:020000040000fa
:040020009e0300003b
:020000040000fa
:040024009e03000037
:020000040000fa
:040028009e03000033
:020000040000fa
:04002c009e0300002f
:020000040000fa
:040030009e0300002b
:020000040000fa
:040034009e03000027
:020000040000fa
:040038009e03000023
:020000040000fa
:04003c009e0300001f
:020000040000fa
:040040009e0300001b
:020000040000fa
:040044009e03000017
:020000040000fa
:040048009e03000013
:020000040000fa
:04004c009e0300000f
:020000040000fa
:040050009e0300000b
:020000040000fa
:040054009e03000007
:020000040000fa
:040058009e03000003
:020000040000fa
:04005c009e030000ff
:020000040000fa
:040060009e030000fb
:020000040000fa
:040064009e030000f7
:020000040000fa
:040068009e030000f3
:020000040000fa
:04006c009e030000ef
:020000040000fa
:040070009e030000eb
:020000040000fa
:040074009e030000e7
:020000040000fa
:040078009e030000e3
:020000040000fa
:04007c009e030000df
:020000040000fa
:040080009e030000db
:020000040000fa
:040084009e030000d7
:020000040000fa
:040088009e030000d3
:020000040000fa
:04008c009e030000cf
:020000040000fa
:040090009e030000cb
:020000040000fa
:040094009e030000c7
:020000040000fa
:040098009e030000c3
:020000040000fa
:04009c009e030000bf
:020000040000fa
:0400a0009e030000bb
:020000040000fa
:0400a4009e030000b7
:020000040000fa
:0400a8009e030000b3
:020000040000fa
:0400ac009e030000af
:020000040000fa
:0400b0009e030000ab
:020000040000fa
:0400b4009e030000a7
:020000040000fa
:0400b8009e030000a3
:020000040000fa
:0400bc009e0300009f
:020000040000fa
:0400c0009e0300009b
:020000040000fa
:0400c4009e03000097
:020000040000fa
:0400c8009e03000093
:020000040000fa
:0400cc009e0300008f
:020000040000fa
:0400d0009e0300008b
:020000040000fa
:0400d4009e03000087
:020000040000fa
:0400d8009e03000083
:020000040000fa
:0400dc009e0300007f
:020000040000fa
:0400e0009e0300007b
:020000040000fa
:0400e4009e03000077
:020000040000fa
:0400e8009e03000073
:020000040000fa
:0400ec009e0300006f
:020000040000fa
:0400f0009e0300006b
:020000040000fa
:0400f4009e03000067
:020000040000fa
:0400f8009e03000063
:020000040000fa
:0400fc009e0300005f
:020000040000fa
:040100009e0300005a
:020000040000fa
:040104009e03000056
:020000040000fa
:040108009e03000052
:020000040000fa
:04010c009e0300004e
:020000040000fa
:040110009e0300004a
:020000040000fa
:040114009e03000046
:020000040000fa
:040118009e03000042
:020000040000fa
:04011c009e0300003e
:020000040000fa
:040120009e0300003a
:020000040000fa
:040124009e03000036
:020000040000fa
:040128009e03000032
:020000040000fa
:04012c009e0300002e
:020000040000fa
:040130009e0300002a
:020000040000fa
:040134009e03000026
:020000040000fa
:040138009e03000022
:020000040000fa
:04013c009e0300001e
:020000040000fa
:040140009e0300001a
:020000040000fa
:040144009e03000016
:020000040000fa
:040148009e03000012
:020000040000fa
:04014c009e0300000e
:020000040000fa
:040150009e0300000a
:020000040000fa
:040154009e03000006
:020000040000fa
:040158009e03000002
:020000040000fa
:04015c009e030000fe
:020000040000fa
:040160009e030000fa
:020000040000fa
:040164009e030000f6
:020000040000fa
:040168009e030000f2
:020000040000fa
:04016c009e030000ee
:020000040000fa
:040170009e030000ea
:020000040000fa
:040174009e030000e6
:020000040000fa
:040178009e030000e2
:020000040000fa
:04017c009e030000de
:020000040000fa
:040180009e030000da
:020000040000fa
:040184009e030000d6
:020000040000fa
:040188009e030000d2
:020000040000fa
:04018c009e030000ce
:020000040000fa
:040190009e030000ca
:020000040000fa
:04019400fa0200006b
:020000040000fa
:04019800360300002a
:020000040000fa
:04019c009e030000be
:020000040000fa
:0401a0009e030000ba
:020000040000fa
:0401a4009e030000b6
:020000040000fa
:0401a8009e030000b2
:020000040000fa
:0401ac009e030000ae
:020000040000fa
:0401b0009e030000aa
:020000040000fa
:0401b4009e030000a6
:020000040000fa
:0401b8009e030000a2
:020000040000fa
:0401bc009e0300009e
:020000040000fa
:0401c0009e0300009a
:020000040000fa
:0401c4009e03000096
:020000040000fa
:0401c8009e03000092
:020000040000fa
:0401cc009e0300008e
:020000040000fa
:0401d0009e0300008a
:020000040000fa
:0401d4009e03000086
:020000040000fa
:0401d8009e03000082
:020000040000fa
:0401dc009e0300007e
:020000040000fa
:0401e0009e0300007a
:020000040000fa
:0401e4009e03000076
:020000040000fa
:0401e8009e03000072
:020000040000fa
:0401ec009e0300006e
:020000040000fa
:0401f0006c0300009c
:020000040000fa
:0401f4009e03000066
:020000040000fa
:0401f8009e03000062
:020000040000fa
:0401fc009e0300005e
:020000040000fa
:040200009e03000059
:020000040000fa
:040204009e03000055
:020000040000fa
:040208009e03000051
:020000040000fa
:04020c009e0300004d
:020000040000fa
:040210009e03000049
:020000040000fa
:040214009e03000045
:020000040000fa
:040218009e03000041
:020000040000fa
:04021c009e0300003d
:020000040000fa
:040220009e03000039
:020000040000fa
:040224009e03000035
:020000040000fa
:040228009e03000031
:020000040000fa
:04022c009e0300002d
:020000040000fa
:040230009e03000029
:020000040000fa
:040234009e03000025
:020000040000fa
:040238009e03000021
:020000040000fa
:04023c009e0300001d
:020000040000fa
:040240009e03000019
:020000040000fa
:040244009e03000015
:020000040000fa
:040248009e03000011
:020000040000fa
:04024c009e0300000d
:020000040000fa
:040250009e03000009
:020000040000fa
:040254009e03000005
:020000040000fa
:040258009e03000001
:020000040000fa
:04025c009e030000fd
:020000040000fa
:040260009e030000f9
:020000040000fa
:040264009e030000f5
:020000040000fa
:040268009e030000f1
:020000040000fa
:04026c009e030000ed
:020000040000fa
:040270009e030000e9
:020000040000fa
:040274009e030000e5
:020000040000fa
:040278009e030000e1
:020000040000fa
:04027c009e030000dd
:020000040000fa
:040280009e030000d9
:020000040000fa
:040284009e030000d5
:020000040000fa
:040288009e030000d1
:020000040000fa
:04028c009e030000cd
:020000040000fa
:040290009e030000c9
:020000040000fa
:040294009e030000c5
:020000040000fa
:040298009e030000c1
:020000040000fa
:04029c009e030000bd
:020000040000fa
:0402a0009e030000b9
:020000040000fa
:0402a4009e030000b5
:020000040000fa
:0402a8009e030000b1
:020000040000fa
:0402ac009e030000ad
:020000040000fa
:0402b0009e030000a9
:020000040000fa
:0402b4009e030000a5
:020000040000fa
:0402b8009e030000a1
:020000040000fa
:0402bc009e0300009d
:020000040000fa
:0402c0009e03000099
:020000040000fa
:0402c4009e03000095
:020000040000fa
:0402c8009e03000091
:020000040000fa
:0402cc009e0300008d
:020000040000fa
:0402d0009e03000089
:020000040000fa
:0402d4009e03000085
:020000040000fa
:0402d8009e03000081
:020000040000fa
:0402dc009e0300007d
:020000040000fa
:0402e0009e03000079
:020000040000fa
:0402e4009e03000075
:020000040000fa
:0402e8009e03000071
:020000040000fa
:0402ec009e0300006d
:020000040000fa
:0402f0009e03000069
:020000040000fa
:0402f4009e03000065
:020000040000fa
:0402f8009e03000061
:020000040000fa
:0402fc009e0300005d
:020000040000fa
:040300009e03000058
:020000040000fa
:040304009e03000054
:020000040000fa
:040308009e03000050
:020000040000fa
:04030c009e0300004c
:020000040000fa
:040310009e03000048
:020000040000fa
:040314009e03000044
:020000040000fa
:040318009e03000040
:020000040000fa
:04031c009e0300003c
:020000040000fa
:040320009e03000038
:020000040000fa
:040324009e03000034
:020000040000fa
:040328009e03000030
:020000040000fa
:04032c009e0300002c
:020000040000fa
:040330009e03000028
:020000040000fa
:040334009e03000024
:020000040000fa
:100400004f0121000eff26000e01880000000000b1
:10041000000020000000e000020032000001200087
:100420002002880014000700c60007000000e0005a
:1004300003003a002068200001002000020037007d
:100440000000200001002000810f70000100320038
:100450000f000700000020000000e0000200320052
:100460000000020000000000620602000000000020
:100470000040da000000fe00200020000000e00044
:1004800002003200100020009001880000000600e9
:10049000a1028800800478000000eb001f003700f4
:1004a000e284440054a0b4009905ba00e2844400f8
:1004b00054a0b4009906ba00e284440054a0b400e9
:1004c0000006eb00476fde00fd07b200ae018800ba
:1004d000636ce10003003a000ad801000000eb0061
:1004e0000e003700606ce10008003a00004deb00a0
:1004f0000a05e800020039003420ec000af0a000f0
:100500008b05e900f9ff3e00040037006168e10057
:10051000010032000086eb000b00070019c7ba008b
:100520001905ba000e04e00003003a000a00e000da
:10053000dbff3a0000000600fe07b200ae028800b2
:100540008a047800f5ff37000cd0a300e20f4d00bd
:100550001c00390089027800354dba000a05e80010
:10056000020039003420ec000af0a0008b05e900fd
:100570000f003200254dba000a05e80002003900dc
:100580003420ec000af0a0008b05e90008003200de
:100590000c00e0000600320015cdba000a05e800a4
:1005a000020039003420ec000af0a0008b05e900bd
:1005b0008984e80054a0b4000b00e000e2ff3a0098
:1005c000000006009902ba00055d78008b05e9007d
:1005d000f7ff3200c82ade00055d78008b05e900d0
:1005e000f3ff32000c00e000f1ff320019ddba0029
:1005f000eeff3700809fbe000000fa0060608000c0
:10060000008088006080800070808800008080000a
:1006100060808800618080007080800000804000e1
:10062000cf00de00008040000080d1000080880004
:10063000008080004200dd00701a88000080800089
:100640004200dd00801f880001808000f0ff200054
:10065000008068004200dd00d01d88000b68a90002
:100660000080fa004f00be0000400600809fbe00e0
:100670000000fa0070608000108088001080800008
:100680004200dd00701a8800108080004200dd000a
:10069000801f880011808000f0ff2000008068002b
:1006a0004200dd00d01d8800b173800000042000ee
:1006b000008060000000e0000200320076cea90059
:1006c0000100370076cea8000b88a9000080fa0050
:1006d0004f00be0000400600809fbe000000fa00f0
:1006e000d06180000080880000808000701a88003f
:1006f00000808000801f880001808000f0ff2000c3
:100700000080680000004000d01d8800b1738000a8
:1007100000042000008060000000e00002003200c1
:1007200076cea9000100370076cea8000e48a900b9
:100730000080fa004f00be00004006000040da00d2
:080740000000fe0000000500ae
:020000040000fa
:100748000000fa00000ea800020ea80031002000e8
:10075800fe210a000a0b000031002000d8210a00ff
:100768000a0b00008000eb0060210a00d60b000095
:1007780030002000605888008000eb0090210a00bb
:10078800d40b00008000eb00fd210a00080b0000dc
:100798003100200098210a00d60b000002eba900c6
:1007a800100ba900102ba9008000eb00ca210a0039
:1007b800d60b0000058ba800f00ba8000b68a90059
:1007c8002b68a800f1002000b8210a00020c0000e4
:1007d80001eba800000ca8000000000001608000e8
:1007e80000102000008060000000e000fbff3200e5
:1007f8000a0ba8004158800000e02f00008060002c
:10080800405888004100200040210a00800b000069
:10081800d00ba9000080fa00000006000000fa00d2
:10082800000ea800020ea80031002000fe210a00d8
:100838000a0b000031002000d8210a000a0b000032
:100848008000eb0060210a00da0b00003000200075
:1008580060588800810c200090210a00d80b000005
:100868008000eb00fd210a00080b00003100200089
:1008780098210a00da0b000002eba900104ba9002e
:10088800106ba9008000eb00ca210a00da0b0000f7
:10089800058ba800f02ba8000b88a9002b88a800be
:1008a800f1002000b8210a00020c000001eba800aa
:1008b800002ca8000000000001608000002020003b
:1008c800008060000000e000fbff32000a2ba80057
:1008d80041002000c8210a00800b0000d02ba9008d
:1008e8000080fa00000006000000fa00706ea80000
:1008f800726ea80031002000fe210a000a0b0000d9
:1009080031002000d8210a000a0b00008000eb000b
:1009180060210a00040b00004106200090210a0013
:10092800060b00008000eb00fd210a00080b000008
:100938003100200065210a00020b000002eba9002b
:1009480015cba90015eba9008000eb00ca210a000d
:10095800d60b000031002000ca210a00da0b000083
:10096800058ba800f2eba8000e48a9002e48a800a5
:10097800f1002000b8210a00020c000001eba800d9
:1009880000eca800000000000160800000002800c2
:10099800008060000000e000fbff32000aeba800c6
:1009a8004158800000e02f00008060007001b30013
:1009b8004058880041002000c8210a00960b00001a
:1009c800d2eba9000080fa00000006000000fa003f
:1009d8000080fa00000006000000fa001100200064
:1009e80010210a00000300008000eb0054210a00d7
:1009f800000300001100200043210a002a03000020
:100a08002ae3a8008000eb0020210a002a03000046
:100a18002c23ef00c000200090198800110020004e
:100a280043210a003403000061002000fb210a0072
:100a3800340300003503a800a0352400901a88006c
:100a48004e23ef0000012000601a880010092000e2
:100a5800e01a880010092000d01a88000001200040
:100a6800a01a88002be3a8000080fa000000060006
:100a78000000fa001100200010210a000003000005
:100a88008000eb0054210a00000300001100200040
:100a980043210a009603000096e3a8008000eb00bb
:100aa80020210a009603000010002000c01c8800c6
:100ab800c0002000f01c8800a0352400f01d88002c
:100ac80000012000d01d880000012000c01d880002
:100ad80010092000401e880010092000301e8800e0
:100ae8001100200043210a00a0030000110020008b
:100af80043210a00cc030000cce3a8008000eb00ef
:100b080020210a00cc03000010002000701e88007d
:100b1800c0002000a01e88001100200043210a0008
:100b2800d6030000a0352400a01f8800f023ef00a2
:100b380000012000701f880010092000f01f8800a5
:100b480010092000e01f880097e3a800cde3a80063
:100b58000080fa00000006000000fa0011002000e2
:100b680050210a00860f0000d1072000b0210a009a
:100b7800880f00004100200064210a008a0f00004d
:100b88003100200064210a008a0f00003200200092
:100b980080072000a109200053f820008049780030
:100ba8008149780082497800120020006004200002
:100bb8007105200043f820008049780081497800b9
:100bc8008249780000000000207c800061006000fd
:100bd8000000e000fcff3a0000000000217c8000db
:100be80000022000008060000000e000fbff3200ef
:100bf8000080fa00000006000000fa001100200042
:100c080050210a008e0f0000810c2000b0210a003c
:100c1800900f00001100200064210a00920f0000cc
:100c28001100200020210a00920f00008fefa80079
:100c38000080fa00000006000000fa00c824ef0057
:100c4800b0232100b025880000302000c02588008e
:100c58000010200010268800a5e4a800310020001c
:100c680076210a00800c00007164800000002f00cb
:100c780080806000e0ff2000010070007064880040
:100c88008000eb00b0210a008c0c00004006200018
:100c9800a064880093eca800934ca80011002000e1
:100ca80053210a00880c0000892ca80089eca800b0
:100cb80081eca8000080fa00000006000000fa009d
:100cc8001e2eef0072cea90072eea800730ea800c7
:100cd800732ea80072aea9009fff070098fe0700b8
:100ce80063ff07003cff070038ff0700a073800080
:0c0cf800a0738000a0738000fbff370099
:020000040000fa
:100d04000c10000008000000820000000008000031
:100d140008ff0f0001000000001000000c0000009c
:080d2400800000000000000047
:020000040000fa
:020000040005f5
:047e0000ffff000080
:020000040000fa
:020000040005f5
:047e2000ffffff0061
:020000040000fa
:020000040005f5
:047e300078ffff00d8
:020000040000fa
:020000040005f5
:047e380079ffff00cf
:020000040000fa
:020000040005f5
:047e40007f7fff0041
:020000040000fa
:020000040005f5
:047e4800ffffff0039
:020000040000fa
:020000040005f5
:047e5000ddffff0053
:020000040000fa
:020000040005f5
:047e58000000ff0027
:020000040000fa
:020000040005f5
:047e60000000ff001f
:020000040000fa
:020000040005f5
:047e68000000ff0017
:020000040000fa
:020000040005f5
:047e70000000ff000f
:020000040000fa
:020000040005f5
:047e7800ffffff0009
:020000040000fa
:020000040005f5
:047e8000fffcff0004
:020000040000fa
:020000040005f5
:047e8800ffffff00f9
:020000040000fa
:020000040005f5
:047ff800ffffff0088
:020000040000fa
:020000040100f9
:04300000ffffff00cf
:00000001FF
